{
  "_format": "hh-sol-artifact-1",
  "contractName": "ClassRegistration",
  "sourceName": "contracts/ClassRegistration.sol",
  "abi": [
    {
      "inputs": [],
      "stateMutability": "nonpayable",
      "type": "constructor"
    },
    {
      "anonymous": false,
      "inputs": [
        {
          "indexed": false,
          "internalType": "uint256",
          "name": "studentId",
          "type": "uint256"
        },
        {
          "indexed": false,
          "internalType": "string",
          "name": "name",
          "type": "string"
        }
      ],
      "name": "StudentRegistered",
      "type": "event"
    },
    {
      "anonymous": false,
      "inputs": [
        {
          "indexed": false,
          "internalType": "uint256",
          "name": "studentId",
          "type": "uint256"
        }
      ],
      "name": "StudentRemoved",
      "type": "event"
    },
    {
      "inputs": [],
      "name": "admin",
      "outputs": [
        {
          "internalType": "address",
          "name": "",
          "type": "address"
        }
      ],
      "stateMutability": "view",
      "type": "function"
    },
    {
      "inputs": [],
      "name": "getAllStudentIds",
      "outputs": [
        {
          "internalType": "uint256[]",
          "name": "",
          "type": "uint256[]"
        }
      ],
      "stateMutability": "view",
      "type": "function"
    },
    {
      "inputs": [
        {
          "internalType": "uint256",
          "name": "_studentId",
          "type": "uint256"
        }
      ],
      "name": "getStudent",
      "outputs": [
        {
          "internalType": "string",
          "name": "name",
          "type": "string"
        },
        {
          "internalType": "bool",
          "name": "isRegistered",
          "type": "bool"
        }
      ],
      "stateMutability": "view",
      "type": "function"
    },
    {
      "inputs": [
        {
          "internalType": "uint256",
          "name": "_studentId",
          "type": "uint256"
        },
        {
          "internalType": "string",
          "name": "_name",
          "type": "string"
        }
      ],
      "name": "registerStudent",
      "outputs": [],
      "stateMutability": "nonpayable",
      "type": "function"
    },
    {
      "inputs": [
        {
          "internalType": "uint256",
          "name": "_studentId",
          "type": "uint256"
        }
      ],
      "name": "removeStudent",
      "outputs": [],
      "stateMutability": "nonpayable",
      "type": "function"
    },
    {
      "inputs": [
        {
          "internalType": "uint256",
          "name": "",
          "type": "uint256"
        }
      ],
      "name": "studentIds",
      "outputs": [
        {
          "internalType": "uint256",
          "name": "",
          "type": "uint256"
        }
      ],
      "stateMutability": "view",
      "type": "function"
    },
    {
      "inputs": [
        {
          "internalType": "uint256",
          "name": "",
          "type": "uint256"
        }
      ],
      "name": "students",
      "outputs": [
        {
          "internalType": "string",
          "name": "name",
          "type": "string"
        },
        {
          "internalType": "bool",
          "name": "isRegistered",
          "type": "bool"
        }
      ],
      "stateMutability": "view",
      "type": "function"
    }
  ],
  "bytecode": "0x6080604052348015600f57600080fd5b50336000806101000a81548173ffffffffffffffffffffffffffffffffffffffff021916908373ffffffffffffffffffffffffffffffffffffffff1602179055506112078061005f6000396000f3fe608060405234801561001057600080fd5b506004361061007d5760003560e01c80636af838451161005b5780636af83845146101005780636f28c3551461011c578063834d336c1461014c578063f851a4401461016a5761007d565b806306ead22e146100825780633f9586d4146100b3578063642f9163146100cf575b600080fd5b61009c6004803603810190610097919061082d565b610188565b6040516100aa929190610905565b60405180910390f35b6100cd60048036038101906100c89190610a6a565b610241565b005b6100e960048036038101906100e4919061082d565b610441565b6040516100f7929190610905565b60405180910390f35b61011a6004803603810190610115919061082d565b610527565b005b6101366004803603810190610131919061082d565b610743565b6040516101439190610ad5565b60405180910390f35b610154610767565b6040516101619190610bae565b60405180910390f35b6101726107bf565b60405161017f9190610c11565b60405180910390f35b60016020528060005260406000206000915090508060000180546101ab90610c5b565b80601f01602080910402602001604051908101604052809291908181526020018280546101d790610c5b565b80156102245780601f106101f957610100808354040283529160200191610224565b820191906000526020600020905b81548152906001019060200180831161020757829003601f168201915b5050505050908060010160009054906101000a900460ff16905082565b60008054906101000a900473ffffffffffffffffffffffffffffffffffffffff1673ffffffffffffffffffffffffffffffffffffffff163373ffffffffffffffffffffffffffffffffffffffff16146102cf576040517f08c379a00000000000000000000000000000000000000000000000000000000081526004016102c690610cfe565b60405180910390fd5b6001600083815260200190815260200160002060010160009054906101000a900460ff1615610333576040517f08c379a000000000000000000000000000000000000000000000000000000000815260040161032a90610d6a565b60405180910390fd5b6000815111610377576040517f08c379a000000000000000000000000000000000000000000000000000000000815260040161036e90610dd6565b60405180910390fd5b6040518060400160405280828152602001600115158152506001600084815260200190815260200160002060008201518160000190816103b79190610fa2565b5060208201518160010160006101000a81548160ff02191690831515021790555090505060028290806001815401808255809150506001900390600052602060002001600090919091909150557f82972a188d7a560cf772804ac1cadfb42df2654ff1ded99159259c287ead26308282604051610435929190611074565b60405180910390a15050565b60606000806001600085815260200190815260200160002060405180604001604052908160008201805461047490610c5b565b80601f01602080910402602001604051908101604052809291908181526020018280546104a090610c5b565b80156104ed5780601f106104c2576101008083540402835291602001916104ed565b820191906000526020600020905b8154815290600101906020018083116104d057829003601f168201915b505050505081526020016001820160009054906101000a900460ff1615151515815250509050806000015181602001519250925050915091565b60008054906101000a900473ffffffffffffffffffffffffffffffffffffffff1673ffffffffffffffffffffffffffffffffffffffff163373ffffffffffffffffffffffffffffffffffffffff16146105b5576040517f08c379a00000000000000000000000000000000000000000000000000000000081526004016105ac90610cfe565b60405180910390fd5b6001600082815260200190815260200160002060010160009054906101000a900460ff16610618576040517f08c379a000000000000000000000000000000000000000000000000000000000815260040161060f906110f0565b60405180910390fd5b60006001600083815260200190815260200160002060010160006101000a81548160ff02191690831515021790555060005b60028054905081101561070857816002828154811061066c5761066b611110565b5b9060005260206000200154036106fb5760026001600280549050610690919061116e565b815481106106a1576106a0611110565b5b9060005260206000200154600282815481106106c0576106bf611110565b5b906000526020600020018190555060028054806106e0576106df6111a2565b5b60019003818190600052602060002001600090559055610708565b808060010191505061064a565b507f59341c48fd0b57ee9c153818be62372ef211cc499da6c2c6d5b8fe49721f36c5816040516107389190610ad5565b60405180910390a150565b6002818154811061075357600080fd5b906000526020600020016000915090505481565b606060028054806020026020016040519081016040528092919081815260200182805480156107b557602002820191906000526020600020905b8154815260200190600101908083116107a1575b5050505050905090565b60008054906101000a900473ffffffffffffffffffffffffffffffffffffffff1681565b6000604051905090565b600080fd5b600080fd5b6000819050919050565b61080a816107f7565b811461081557600080fd5b50565b60008135905061082781610801565b92915050565b600060208284031215610843576108426107ed565b5b600061085184828501610818565b91505092915050565b600081519050919050565b600082825260208201905092915050565b60005b83811015610894578082015181840152602081019050610879565b60008484015250505050565b6000601f19601f8301169050919050565b60006108bc8261085a565b6108c68185610865565b93506108d6818560208601610876565b6108df816108a0565b840191505092915050565b60008115159050919050565b6108ff816108ea565b82525050565b6000604082019050818103600083015261091f81856108b1565b905061092e60208301846108f6565b9392505050565b600080fd5b600080fd5b7f4e487b7100000000000000000000000000000000000000000000000000000000600052604160045260246000fd5b610977826108a0565b810181811067ffffffffffffffff821117156109965761099561093f565b5b80604052505050565b60006109a96107e3565b90506109b5828261096e565b919050565b600067ffffffffffffffff8211156109d5576109d461093f565b5b6109de826108a0565b9050602081019050919050565b82818337600083830152505050565b6000610a0d610a08846109ba565b61099f565b905082815260208101848484011115610a2957610a2861093a565b5b610a348482856109eb565b509392505050565b600082601f830112610a5157610a50610935565b5b8135610a618482602086016109fa565b91505092915050565b60008060408385031215610a8157610a806107ed565b5b6000610a8f85828601610818565b925050602083013567ffffffffffffffff811115610ab057610aaf6107f2565b5b610abc85828601610a3c565b9150509250929050565b610acf816107f7565b82525050565b6000602082019050610aea6000830184610ac6565b92915050565b600081519050919050565b600082825260208201905092915050565b6000819050602082019050919050565b610b25816107f7565b82525050565b6000610b378383610b1c565b60208301905092915050565b6000602082019050919050565b6000610b5b82610af0565b610b658185610afb565b9350610b7083610b0c565b8060005b83811015610ba1578151610b888882610b2b565b9750610b9383610b43565b925050600181019050610b74565b5085935050505092915050565b60006020820190508181036000830152610bc88184610b50565b905092915050565b600073ffffffffffffffffffffffffffffffffffffffff82169050919050565b6000610bfb82610bd0565b9050919050565b610c0b81610bf0565b82525050565b6000602082019050610c266000830184610c02565b92915050565b7f4e487b7100000000000000000000000000000000000000000000000000000000600052602260045260246000fd5b60006002820490506001821680610c7357607f821691505b602082108103610c8657610c85610c2c565b5b50919050565b7f4f6e6c792061646d696e2063616e20706572666f726d2074686973206163746960008201527f6f6e000000000000000000000000000000000000000000000000000000000000602082015250565b6000610ce8602283610865565b9150610cf382610c8c565b604082019050919050565b60006020820190508181036000830152610d1781610cdb565b9050919050565b7f53747564656e7420494420616c72656164792065786973747300000000000000600082015250565b6000610d54601983610865565b9150610d5f82610d1e565b602082019050919050565b60006020820190508181036000830152610d8381610d47565b9050919050565b7f4e616d652063616e6e6f7420626520656d707479000000000000000000000000600082015250565b6000610dc0601483610865565b9150610dcb82610d8a565b602082019050919050565b60006020820190508181036000830152610def81610db3565b9050919050565b60008190508160005260206000209050919050565b60006020601f8301049050919050565b600082821b905092915050565b600060088302610e587fffffffffffffffffffffffffffffffffffffffffffffffffffffffffffffffff82610e1b565b610e628683610e1b565b95508019841693508086168417925050509392505050565b6000819050919050565b6000610e9f610e9a610e95846107f7565b610e7a565b6107f7565b9050919050565b6000819050919050565b610eb983610e84565b610ecd610ec582610ea6565b848454610e28565b825550505050565b600090565b610ee2610ed5565b610eed818484610eb0565b505050565b5b81811015610f1157610f06600082610eda565b600181019050610ef3565b5050565b601f821115610f5657610f2781610df6565b610f3084610e0b565b81016020851015610f3f578190505b610f53610f4b85610e0b565b830182610ef2565b50505b505050565b600082821c905092915050565b6000610f7960001984600802610f5b565b1980831691505092915050565b6000610f928383610f68565b9150826002028217905092915050565b610fab8261085a565b67ffffffffffffffff811115610fc457610fc361093f565b5b610fce8254610c5b565b610fd9828285610f15565b600060209050601f83116001811461100c5760008415610ffa578287015190505b6110048582610f86565b86555061106c565b601f19841661101a86610df6565b60005b828110156110425784890151825560018201915060208501945060208101905061101d565b8683101561105f578489015161105b601f891682610f68565b8355505b6001600288020188555050505b505050505050565b60006040820190506110896000830185610ac6565b818103602083015261109b81846108b1565b90509392505050565b7f53747564656e7420646f6573206e6f7420657869737400000000000000000000600082015250565b60006110da601683610865565b91506110e5826110a4565b602082019050919050565b60006020820190508181036000830152611109816110cd565b9050919050565b7f4e487b7100000000000000000000000000000000000000000000000000000000600052603260045260246000fd5b7f4e487b7100000000000000000000000000000000000000000000000000000000600052601160045260246000fd5b6000611179826107f7565b9150611184836107f7565b925082820390508181111561119c5761119b61113f565b5b92915050565b7f4e487b7100000000000000000000000000000000000000000000000000000000600052603160045260246000fdfea2646970667358221220b625ff064870e432cb4e1deb1a4fde0990167d804b69a8baa884eddf6dffea8b64736f6c634300081c0033",
  "linkReferences": {},
  "deployedLinkReferences": {}
}